:020000040000FA
:02000000192EB7
:040002000034003492
:080008001524090001300B244E
:100010002308870005100F24220887000F24803052
:100020000B242308870005100F24220887000F24C3
:1000300041300B242308870005140F242208870071
:100040000F2474300B242308870005140F24220882
:1000500087000F2474300B242308870005140F2415
:10006000220887000F2465300B242308870005141D
:100070000F24220887000F246E300B2423088700EA
:1000800005140F24220887000F2464300B24230852
:10009000870005140F24220887000F2461300B24E9
:1000A0002308870005140F24220887000F246E30D0
:1000B0000B242308870005140F24220887000F242F
:1000C00074300B242308870005140F2422088700AE
:1000D0000F2420300B242308870005140F24220846
:1000E00087000F244D300B242308870005140F24AC
:1000F000220887000F246F300B2423088700051483
:100100000F24220887000F2464300B242308870063
:1001100005140F24220887000F2475300B242308B0
:10012000870005140F24220887000F246C300B244D
:100130002308870005140F24220887000F24653048
:100140000B242308870005140F24220887000F249E
:10015000C0300B242308870005100F2422088700D5
:100160000F24DB234D300B242308870005140F24B4
:10017000220887000F2469300B2423088700051408
:100180000F24220887000F2463300B2423088700E4
:1001900005140F24220887000F2472300B24230833
:1001A000870005140F24220887000F246F300B24CA
:1001B0002308870005140F24220887000F246330CA
:1001C0000B242308870005140F24220887000F241E
:1001D0006F300B242308870005140F2422088700A2
:1001E0000F246E300B242308870005140F242208E7
:1001F00087000F2474300B242308870005140F2474
:10020000220887000F2472300B242308870005146E
:100210000F24220887000F246F300B242308870047
:1002200005140F24220887000F246C300B242308A8
:10023000870005140F24220887000F246C300B243C
:100240002308870005140F24220887000F24653037
:100250000B242308870005140F24220887000F248D
:1002600072300B242308870005140F24220887000E
:100270000F2473300B242308870005140F24220851
:1002800087000F2421300B242308870005140F2436
:10029000220887000F24080001300B242308870060
:1002A00005100F24220887000F2480300B24230818
:1002B000870005100F24220887000F2453300B24D9
:1002C0002308870005140F24220887000F245430C8
:1002D0000B242308870005140F24220887000F240D
:1002E00041300B242308870005140F2422088700BF
:1002F0000F2420300B242308870005140F24220824
:1003000087000F244F300B242308870005140F2487
:10031000220887000F244B300B2423088700051484
:100320000F24220887000F243F300B242308870066
:1003300005140F24220887000F24080001300B2425
:100340002308870005100F24220887000F2480301F
:100350000B242308870005100F24220887000F2490
:1003600057300B242308870005140F242208870028
:100370000F2449300B242308870005140F2422087A
:1003800087000F2446300B242308870005140F2410
:10039000220887000F2449300B2423088700051406
:1003A0000F24220887000F2420300B242308870005
:1003B00005140F24220887000F244F300B24230834
:1003C000870005140F24220887000F244B300B24CC
:1003D0002308870005140F24220887000F243F30CC
:1003E0000B242308870005140F24220887000F24FC
:1003F000080001300B242308870005100F24220871
:1004000087000F2480300B242308870005100F2459
:10041000220887000F2443300B242308870005148B
:100420000F24220887000F2450300B242308870054
:1004300005140F24220887000F244D300B242308B5
:10044000870005140F24220887000F2455300B2441
:100450002308870005140F24220887000F24583032
:100460000B242308870005140F24220887000F247B
:1004700020300B242308870005140F24220887004E
:100480000F244F300B242308870005140F24220863
:1004900087000F244B300B242308870005140F24FA
:1004A000220887000F243F300B24230887000514FF
:1004B0000F24220887000F24080001300B24230892
:1004C000870005100F24220887000F2480300B249A
:1004D0002308870005100F24220887000F244330CB
:1004E0000B242308870005140F24220887000F24FB
:1004F0006F300B242308870005140F24220887007F
:100500000F246E300B242308870005140F242208C3
:1005100087000F246E300B242308870005140F2456
:10052000220887000F2420300B242308870005149D
:100530000F24220887000F2464300B24230887002F
:1005400005140F24220887000F246F300B24230882
:10055000870005140F24220887000F246E300B2417
:100560002308870005140F24220887000F24653014
:100570000B242308870005140F24220887000F246A
:1005800021300B242308870005140F24220887003C
:100590000F24080001300B242308870005100F24C6
:1005A000220887000F2480300B24230887000510C1
:1005B0000F24220887000F2454300B2423088700BF
:1005C00005140F24220887000F2443300B2423082E
:1005D000870005140F24220887000F2450300B24B5
:1005E0002308870005140F24220887000F24080021
:1005F0002E300B242308870005140F2422088700BF
:100600000F24080001300B242308870005100F2455
:10061000220887000F2480300B2423088700051050
:100620000F24220887000F2447300B24230887005B
:1006300005140F24220887000F2475300B2423088B
:10064000870005140F24220887000F2469300B242B
:100650002308870005140F24220887000F24633025
:100660000B242308870005140F24220887000F2479
:1006700068300B242308870005140F242208870004
:100680000F2465300B242308870005140F2422084B
:1006900087000F243A300B242308870005140F2409
:1006A000220887000F2420300B242308870005141C
:1006B0000F24220887000F2428080B242308870012
:1006C00005140F24220887000F24C0300B242308B0
:1006D000870005100F24220887000F2454300B24B4
:1006E0002308870005140F24220887000F2469308F
:1006F0000B242308870005140F24220887000F24E9
:1007000063300B242308870005140F242208870078
:100710000F246B300B242308870005140F242208B4
:1007200087000F2465300B242308870005140F244D
:10073000220887000F2474300B2423088700051437
:100740000F24220887000F243A300B242308870047
:1007500005140F24220887000F2420300B242308BF
:10076000870005140F24220887000F2424080B2477
:100770002308870005140F24220887000F24270868
:100780000B242308870005140F24220887000F2458
:1007900026080B242308870005140F24220887004D
:1007A0000F2425080B242308870005140F24220892
:1007B00087000F2408000630A000FF30A100A10B25
:1007C000DF2BA00BDD2B08008312031333300B2427
:1007D0002308870005100F24220887000F243230D9
:1007E0000B242308870005100F24220887000F24FC
:1007F00028300B242308870005100F2422088700C7
:100800000F240F300B242308870005100F24220823
:1008100087000F240800A300A200A30E080085147F
:10082000DB238510DB23DB230800051E1B2C851E24
:10083000312C0B10080080300B2423088700051092
:100840000F24220887000F2401300B24230887007F
:1008500005100F24220887000F248E241D25022353
:10086000192C25085A3C0319192C1D250223192C73
:100870009718492414080B242308870005140F2413
:10088000220887000F24140808008C1C452C9500B2
:10089000080017121716080038240B2423088700B5
:1008A00005140F24220887000F24080038244F3C29
:1008B000031D562C38244B3C031D562C08003824AD
:1008C0002B3C031D5F2C3824493C031D5F2C38242E
:1008D000503C031D5F2C3824443C031D5F2C3824FE
:1008E0002C3C031D5F2C3824303C031D5F2C382426
:1008F0002C3C031D5F2C3824353C031D5F2C382411
:100900003A3C031D5F2C38243824A4003824A70067
:100910003824A6003824A50002230800B32543305C
:100920004524493045245030452453304524543023
:1009300045244130452452304524543045243D302F
:100940004524303045242C30452422304524543071
:1009500045244330452450304524223045242C3052
:100960004524223045243130452439304524323065
:1009700045242E3045243130452436304524383046
:1009800045242E304524303045242E304524313046
:1009900045243030452431304524223045242C3044
:1009A0004524313045243030452430304524303022
:1009B00045240D3045240A304524CA225624F82205
:1009C000B325433045244930452450304524533025
:1009D0004524453045244E304524443045243D309F
:1009E0004524303045242C304524313045240D3009
:1009F00045240A3045245624F822280845240D3081
:100A000045240A305624F8225F24B3254330452478
:100A10004930452450304524433045244C3045244A
:100A20004F30452453304524453045240D3045246E
:100A30000A3045245624F8220800B32543304524C3
:100A40004930452450304524533045245430452402
:100A50004130452452304524543045243D3045240E
:100A6000303045242C304524223045245430452450
:100A70004330452450304524223045242C30452431
:100A80002230452431304524393045243230452444
:100A90002E30452431304524363045243830452425
:100AA0002E304524303045242E3045243130452425
:100AB0003030452432304524223045242C30452422
:100AC0003130452430304524303045243030452401
:100AD0000D3045240A304524CA225624F822B32575
:100AE0004330452449304524503045245330452473
:100AF000453045244E304524443045243D3045247E
:100B0000303045242C304524353045240D304524E3
:100B10000A3045245624F822280845242408452470
:100B20002508452426084524270845240D3045245A
:100B30000A305624F822B325433045244930452451
:100B400050304524433045244C3045244F30452413
:100B500053304524453045240D3045240A30452482
:100B60005624F822080041304524543045242B30C7
:100B700045240800B32543304524573045244D30E3
:100B800045244F30452444304524453045243D30EC
:100B90004524313045240D3045240A3045244C216C
:100BA0005624B32543304524573045244A30452444
:100BB00041304524503045245F304524433045249E
:100BC00055304524523045243D30452422304524BB
:100BD000643045246C304524693045246E3045240A
:100BE0006B304524223045242C30452422304524C6
:100BF000223045240D3045240A3045249E215624B8
:100C0000B3254330452449304524503045244D30E8
:100C1000452455304524583045243D304524313055
:100C200045240D3045240A304524F92156245D22FF
:100C300008008312031307309900831603139101F0
:100C400038308500303087008113303095008312B2
:100C5000031387018501E4238B17831603133030B8
:100C600096008B150B1070308F00831203130C301D
:100C700093008C129717171616129616BA2506208F
:0E0C80005A30A5003530A800452EDB23452E46
:02400E00D43F9D
:00000001FF
