:020000040000FA
:020000001B2EB5
:040002000034003492
:08000800152409000630A000D8
:10001000FF30A100A10B0A28A00B082808008312BA
:100020000313333036202308870005103A202208B6
:1000300087003A20323036202308870005103A2006
:10004000220887003A202830362023088700051030
:100050003A20220887003A200F30362023088700F4
:1000600005103A20220887003A200800A300A200C9
:10007000A30E08008514062085100620062008001F
:10008000013036202308870005103A202208870017
:100090003A20803036202308870005103A202208B5
:1000A00087003A20413036202308870005143A2083
:1000B000220887003A207430362023088700051470
:1000C0003A20220887003A2074303620230887001F
:1000D00005143A20220887003A206530362023088C
:1000E000870005143A20220887003A206E30362017
:1000F0002308870005143A20220887003A2064303C
:1001000036202308870005143A20220887003A2069
:10011000613036202308870005143A202208870022
:100120003A206E3036202308870005143A20220832
:1001300087003A20743036202308870005143A20BF
:10014000220887003A202030362023088700051433
:100150003A20220887003A204D30362023088700B5
:1001600005143A20220887003A206F3036202308F1
:10017000870005143A20220887003A206430362090
:100180002308870005143A20220887003A2075309A
:1001900036202308870005143A20220887003A20D9
:1001A0006C3036202308870005143A202208870087
:1001B0003A20653036202308870005143A202208AB
:1001C00087003A20C03036202308870005103A20E7
:1001D000220887003A2006204D3036202308870069
:1001E00005143A20220887003A2069303620230877
:1001F000870005143A20220887003A206330362011
:100200002308870005143A20220887003A2072301C
:1002100036202308870005143A20220887003A2058
:100220006F3036202308870005143A202208870003
:100230003A20633036202308870005143A2022082C
:1002400087003A206F3036202308870005143A20B3
:10025000220887003A206E303620230887000514D4
:100260003A20220887003A2074303620230887007D
:1002700005143A20220887003A20723036202308DD
:10028000870005143A20220887003A206F30362074
:100290002308870005143A20220887003A206C3092
:1002A00036202308870005143A20220887003A20C8
:1002B0006C3036202308870005143A202208870076
:1002C0003A20653036202308870005143A2022089A
:1002D00087003A20723036202308870005143A2020
:1002E000220887003A20733036202308870005143F
:1002F0003A20220887003A20213036202308870040
:1003000005143A20220887003A20080001303620E0
:100310002308870005103A20220887003A20803001
:1003200036202308870005103A20220887003A204B
:10033000533036202308870005143A20220887000E
:100340003A20543036202308870005143A2022082A
:1003500087003A20413036202308870005143A20D0
:10036000220887003A202030362023088700051411
:100370003A20220887003A204F3036202308870091
:1003800005143A20220887003A204B3036202308F3
:10039000870005143A20220887003A203F30362093
:1003A0002308870005143A20220887003A20080015
:1003B000013036202308870005103A2022088700E4
:1003C0003A20803036202308870005103A20220882
:1003D00087003A20573036202308870005143A203A
:1003E000220887003A204930362023088700051468
:1003F0003A20220887003A2046303620230887001A
:1004000005143A20220887003A2049303620230874
:10041000870005143A20220887003A202030362031
:100420002308870005143A20220887003A204F301D
:1004300036202308870005143A20220887003A2036
:100440004B3036202308870005143A202208870005
:100450003A203F3036202308870005143A2022082E
:1004600087003A2008000130362023088700051055
:100470003A20220887003A2080303620230887005F
:1004800005103A20220887003A20433036202308FE
:10049000870005143A20220887003A205030362081
:1004A0002308870005143A20220887003A204D309F
:1004B00036202308870005143A20220887003A20B6
:1004C000553036202308870005143A20220887007B
:1004D0003A20583036202308870005143A20220895
:1004E00087003A20203036202308870005143A2060
:1004F000220887003A204F30362023088700051451
:100500003A20220887003A204B3036202308870003
:1005100005143A20220887003A203F30362023086D
:10052000870005143A20220887003A20080001308D
:1005300036202308870005103A20220887003A2039
:10054000803036202308870005103A2022088700D3
:100550003A20433036202308870005143A20220829
:1005600087003A206F3036202308870005143A2090
:10057000220887003A206E303620230887000514B1
:100580003A20220887003A206E3036202308870060
:1005900005143A20220887003A202030362023080C
:1005A000870005143A20220887003A20643036205C
:1005B0002308870005143A20220887003A206F306C
:1005C00036202308870005143A20220887003A20A5
:1005D0006E3036202308870005143A202208870051
:1005E0003A20653036202308870005143A20220877
:1005F00087003A20213036202308870005143A204E
:10060000220887003A20080001303620230887009E
:1006100005103A20220887003A208030362023082F
:10062000870005103A20220887003A2054303620EF
:100630002308870005143A20220887003A20433017
:1006400036202308870005143A20220887003A2024
:10065000503036202308870005143A2022088700EE
:100660003A2008002E3036202308870005143A204F
:10067000220887003A20080001303620230887002E
:1006800005103A20220887003A20803036202308BF
:10069000870005103A20220887003A20473036208C
:1006A0002308870005143A20220887003A20753075
:1006B00036202308870005143A20220887003A20B4
:1006C000693036202308870005143A202208870065
:1006D0003A20633036202308870005143A20220888
:1006E00087003A20683036202308870005143A2016
:1006F000220887003A206530362023088700051439
:100700003A20220887003A203A3036202308870012
:1007100005143A20220887003A202030362023088A
:10072000870005143A20220887003A20280836203E
:100730002308870005143A20220887003A20C03099
:1007400036202308870005103A20220887003A2027
:10075000543036202308870005143A2022088700E9
:100760003A20693036202308870005143A202208F1
:1007700087003A20633036202308870005143A208A
:10078000220887003A206B303620230887000514A2
:100790003A20220887003A20653036202308870057
:1007A00005143A20220887003A20743036202308A6
:1007B000870005143A20220887003A203A30362074
:1007C0002308870005143A20220887003A202030A9
:1007D00036202308870005143A20220887003A2093
:1007E000240836202308870005143A2022088700B1
:1007F0003A20270836202308870005143A202208CB
:1008000087003A20260836202308870005143A205E
:10081000220887003A20250836202308870005147F
:100820003A20220887003A200800051E1B2C851E4E
:10083000312C0B100800803036202308870005106B
:100840003A20220887003A2001303620230887000A
:1008500005103A20220887003A2090241F253C23C7
:10086000192C25085A3C0319192C1F253C23192C37
:1008700097184B248C1E382C140836202308870028
:1008800005143A20220887003A20140808008C1C1E
:10089000472C950008001712171608003824362038
:1008A0002308870005143A20220887003A20080010
:1008B00038244F3C031D582C38244B3C031D582C26
:1008C000080038242B3C031D612C3824493C031DAF
:1008D000612C3824503C031D612C3824443C031DFA
:1008E000612C38242C3C031D612C3824303C031D22
:1008F000612C38242C3C031D612C3824353C031D0D
:10090000612C38243A3C031D612C38243824A4007F
:100910003824A7003824A6003824A5003C2308006A
:10092000B5254330472449304724503047245330BD
:100930004724543047244130472452304724543010
:1009400047243D304724303047242C304724223080
:100950004724543047244330472450304724223022
:1009600047242C3047242230472431304724393063
:100970004724323047242E30472431304724363044
:100980004724383047242E304724303047242E3037
:100990004724313047243030472431304724223037
:1009A00047242C304724313047243030472430301E
:1009B0004724303047240D3047240A30472404238D
:1009C00058243223B525433047244930472450303A
:1009D000472453304724453047244E304724443081
:1009E00047243D304724303047242C3047243130D1
:1009F00047240D3047240A3047245824322328083E
:100A000047240D3047240A30582432236124B52569
:100A1000433047244930472450304724433047244B
:100A20004C3047244F304724533047244530472427
:100A30000D3047240A304724582432230800B525B6
:100A4000433047244930472450304724533047240B
:100A500054304724413047245230472454304724EF
:100A60003D304724303047242C304724223047245F
:100A70005430472443304724503047242230472401
:100A80002C30472422304724313047243930472442
:100A9000323047242E304724313047243630472423
:100AA000383047242E304724303047242E30472416
:100AB0003130472430304724323047242230472415
:100AC0002C304724313047243030472430304724FD
:100AD000303047240D3047240A304724042358245B
:100AE0003223B5254330472449304724503047242A
:100AF00053304724453047244E3047244430472460
:100B00003D304724303047242C30472435304724AB
:100B10000D3047240A30472458243223280847241C
:100B20002408472425084724260847242708472463
:100B30000D3047240A3058243223B525433047244A
:100B40004930472450304724433047244C30472411
:100B50004F30472453304724453047240D30472435
:100B60000A304724582432230800413047245430A7
:100B700047242B3047240800B525433047245730FD
:100B800047244D3047244F304724443047244530D4
:100B900047243D304724313047240D3047240A3064
:100BA000472486215824B52543304724573047240D
:100BB0004A30472441304724503047245F3047248F
:100BC0004330472455304724523047243D30472492
:100BD00022304724643047246C304724693047244E
:100BE0006E3047246B304724223047242C30472472
:100BF00022304724223047240D3047240A3047242E
:100C0000D8215824B5254330472449304724503053
:100C100047244D30472455304724583047243D3031
:100C20004724313047240D3047240A3047243322EB
:100C30005824972208008312031307309900831663
:100C40000313910138308500303087008113303034
:100C5000950083120313870185010F208B178316DC
:100C60000313303096008B150B1070308F008312F9
:100C700003130C3093008C12971717161612961642
:100C8000BC2540205A30A5003530A800472E06204C
:020C9000472EED
:02400E00D43F9D
:00000001FF
