:020000040000FA
:020000000A2EC6
:040002000034003492
:080008001524090001300B244E
:100010002308870005100F24220887000F24803052
:100020000B242308870005100F24220887000F24C3
:1000300041300B242308870005140F242208870071
:100040000F2474300B242308870005140F24220882
:1000500087000F2474300B242308870005140F2415
:10006000220887000F2465300B242308870005141D
:100070000F24220887000F246E300B2423088700EA
:1000800005140F24220887000F2464300B24230852
:10009000870005140F24220887000F2461300B24E9
:1000A0002308870005140F24220887000F246E30D0
:1000B0000B242308870005140F24220887000F242F
:1000C00074300B242308870005140F2422088700AE
:1000D0000F2420300B242308870005140F24220846
:1000E00087000F244D300B242308870005140F24AC
:1000F000220887000F246F300B2423088700051483
:100100000F24220887000F2464300B242308870063
:1001100005140F24220887000F2475300B242308B0
:10012000870005140F24220887000F246C300B244D
:100130002308870005140F24220887000F24653048
:100140000B242308870005140F24220887000F249E
:10015000C0300B242308870005100F2422088700D5
:100160000F24DB234D300B242308870005140F24B4
:10017000220887000F2469300B2423088700051408
:100180000F24220887000F2463300B2423088700E4
:1001900005140F24220887000F2472300B24230833
:1001A000870005140F24220887000F246F300B24CA
:1001B0002308870005140F24220887000F246330CA
:1001C0000B242308870005140F24220887000F241E
:1001D0006F300B242308870005140F2422088700A2
:1001E0000F246E300B242308870005140F242208E7
:1001F00087000F2474300B242308870005140F2474
:10020000220887000F2472300B242308870005146E
:100210000F24220887000F246F300B242308870047
:1002200005140F24220887000F246C300B242308A8
:10023000870005140F24220887000F246C300B243C
:100240002308870005140F24220887000F24653037
:100250000B242308870005140F24220887000F248D
:1002600072300B242308870005140F24220887000E
:100270000F2473300B242308870005140F24220851
:1002800087000F2421300B242308870005140F2436
:10029000220887000F24080001300B242308870060
:1002A00005100F24220887000F2480300B24230818
:1002B000870005100F24220887000F2453300B24D9
:1002C0002308870005140F24220887000F245430C8
:1002D0000B242308870005140F24220887000F240D
:1002E00041300B242308870005140F2422088700BF
:1002F0000F2420300B242308870005140F24220824
:1003000087000F244F300B242308870005140F2487
:10031000220887000F244B300B2423088700051484
:100320000F24220887000F243F300B242308870066
:1003300005140F24220887000F24080001300B2425
:100340002308870005100F24220887000F2480301F
:100350000B242308870005100F24220887000F2490
:1003600057300B242308870005140F242208870028
:100370000F2449300B242308870005140F2422087A
:1003800087000F2446300B242308870005140F2410
:10039000220887000F2449300B2423088700051406
:1003A0000F24220887000F2420300B242308870005
:1003B00005140F24220887000F244F300B24230834
:1003C000870005140F24220887000F244B300B24CC
:1003D0002308870005140F24220887000F243F30CC
:1003E0000B242308870005140F24220887000F24FC
:1003F000080001300B242308870005100F24220871
:1004000087000F2480300B242308870005100F2459
:10041000220887000F2443300B242308870005148B
:100420000F24220887000F2450300B242308870054
:1004300005140F24220887000F244D300B242308B5
:10044000870005140F24220887000F2455300B2441
:100450002308870005140F24220887000F24583032
:100460000B242308870005140F24220887000F247B
:1004700020300B242308870005140F24220887004E
:100480000F244F300B242308870005140F24220863
:1004900087000F244B300B242308870005140F24FA
:1004A000220887000F243F300B24230887000514FF
:1004B0000F24220887000F24080001300B24230892
:1004C000870005100F24220887000F2480300B249A
:1004D0002308870005100F24220887000F244330CB
:1004E0000B242308870005140F24220887000F24FB
:1004F0006F300B242308870005140F24220887007F
:100500000F246E300B242308870005140F242208C3
:1005100087000F246E300B242308870005140F2456
:10052000220887000F2420300B242308870005149D
:100530000F24220887000F2464300B24230887002F
:1005400005140F24220887000F246F300B24230882
:10055000870005140F24220887000F246E300B2417
:100560002308870005140F24220887000F24653014
:100570000B242308870005140F24220887000F246A
:1005800021300B242308870005140F24220887003C
:100590000F24080001300B242308870005100F24C6
:1005A000220887000F2480300B24230887000510C1
:1005B0000F24220887000F2454300B2423088700BF
:1005C00005140F24220887000F2443300B2423082E
:1005D000870005140F24220887000F2450300B24B5
:1005E0002308870005140F24220887000F24080021
:1005F0002E300B242308870005140F2422088700BF
:100600000F24080001300B242308870005100F2455
:10061000220887000F2480300B2423088700051050
:100620000F24220887000F2447300B24230887005B
:1006300005140F24220887000F2475300B2423088B
:10064000870005140F24220887000F2469300B242B
:100650002308870005140F24220887000F24633025
:100660000B242308870005140F24220887000F2479
:1006700068300B242308870005140F242208870004
:100680000F2465300B242308870005140F2422084B
:1006900087000F243A300B242308870005140F2409
:1006A000220887000F2420300B242308870005141C
:1006B0000F24220887000F2428080B242308870012
:1006C00005140F24220887000F24C0300B242308B0
:1006D000870005100F24220887000F2454300B24B4
:1006E0002308870005140F24220887000F2469308F
:1006F0000B242308870005140F24220887000F24E9
:1007000063300B242308870005140F242208870078
:100710000F246B300B242308870005140F242208B4
:1007200087000F2465300B242308870005140F244D
:10073000220887000F2474300B2423088700051437
:100740000F24220887000F243A300B242308870047
:1007500005140F24220887000F2420300B242308BF
:10076000870005140F24220887000F2424080B2477
:100770002308870005140F24220887000F24270868
:100780000B242308870005140F24220887000F2458
:1007900026080B242308870005140F24220887004D
:1007A0000F2425080B242308870005140F24220892
:1007B00087000F2408000630A000FF30A100A10B25
:1007C000DF2BA00BDD2B08008312031333300B2427
:1007D0002308870005100F24220887000F243230D9
:1007E0000B242308870005100F24220887000F24FC
:1007F00028300B242308870005100F2422088700C7
:100800000F240F300B242308870005100F24220823
:1008100087000F240800A300A200A30E080085147F
:10082000DB238510DB23DB230800051E1C2C851E23
:10083000322C8C120B10080080300B242308870008
:1008400005100F24220887000F2401300B242308F1
:10085000870005100F24220887000F249B241925E8
:100860000223192C25085A3C0319192C1925022397
:10087000192C971843248C1E392C14080800961C38
:100880003F2C9500080017121716080039244F3C1A
:10089000031D462C39244B3C031D462C39240D3CAA
:1008A000031D462C080039242B3C031D532C3924EE
:1008B000493C031D532C3924503C031D532C39242F
:1008C000443C031D532C39242C3C031D532C392448
:1008D000303C031D532C39242C3C031D532C39244C
:1008E000353C031D532C39243A3C031D532C392429
:1008F0003924A4003924A7003924A6003924A500EE
:10090000022308003924473C031D822C39244F3C24
:10091000031D822C3924543C031D822C3924203C95
:10092000031D822C3924493C031D822C3924503C60
:10093000031D822C0800CA229C2543303F244930E5
:100940003F2450303F2453303F2454303F24413023
:100950003F2452303F2454303F243D303F24303038
:100960003F242C303F2422303F2454303F24433056
:100970003F2450303F2422303F242C303F2422306B
:100980003F2431303F2439303F2432303F242E3051
:100990003F2431303F2436303F2438303F242E303E
:1009A0003F2430303F242E303F2431303F2430303C
:1009B0003F2431303F2422303F242C303F2431303B
:1009C0003F2430303F2430303F2430303F240D303E
:1009D0003F240A303F24CA224624F8229C25433073
:1009E0003F2449303F2450303F2453303F2445308A
:1009F0003F244E303F2444303F243D303F243030AC
:100A00003F242C303F2431303F240D303F240A3026
:100A10003F244624F82228083F240D303F240A3082
:100A20004624F8225324F822DB23DB23DB23DB23B9
:100A300008009C2543303F2449303F2450303F2458
:100A400053303F2454303F2441303F2452303F2420
:100A500054303F243D303F2431303F242C303F245C
:100A600022303F2454303F2443303F2450303F2431
:100A700022303F242C303F2422303F2431303F2489
:100A800039303F2432303F242E303F2431303F2450
:100A900036303F2438303F242E303F2430303F243E
:100AA0002E303F2431303F2430303F2433303F2438
:100AB00022303F242C303F2431303F2430303F243B
:100AC00030303F2430303F240D303F240A303F2463
:100AD0004624F8229C2543303F2449303F2450309F
:100AE0003F2453303F2445303F244E303F24443090
:100AF0003F243D303F2430303F242C303F243530DC
:100B00003F240D303F240A303F244624F822280891
:100B10003F2424083F2425083F2426083F24270893
:100B20003F240D303F240A304624F822DB23DB2308
:100B3000DB23DB23F822080041303F2454303F24DC
:100B40002B303F2408009C2552303F2453303F2453
:100B500054303F2408004C219C2543303F2457301B
:100B60003F244D303F244F303F2444303F24453014
:100B70003F243D303F2431303F240D303F240A30A4
:100B80003F2446249E219C2543303F2457303F2458
:100B90004A303F2441303F2450303F245F303F24CF
:100BA00043303F2455303F2452303F243D303F24D2
:100BB00022303F2464303F246C303F2469303F248E
:100BC0006E303F246B303F2422303F242C303F24B2
:100BD00022303F2422303F240D303F240A303F246E
:100BE0004624F9219C2543303F2449303F2450308E
:100BF0003F244D303F2455303F2458303F243D3072
:100C00003F2431303F240D303F240A303F24462416
:100C10005D22080083120313073099008316031323
:100C200091013830850030308700811330309500D5
:100C30008312031387018501E4238B1783160313A3
:100C40003030960070308F00831203130C30930005
:100C50008C129717171616129616831603138C16F6
:100C60008C14831203135A30A5003530A800DB23FF
:100C7000DB23DB23DB23AB2506208B150B10402E5B
:040C8000DB23402E04
:02400E00D43F9D
:00000001FF
