:020000040000FA
:020000003E2C94
:040002000034003492
:080008004D2309000630A000A1
:10001000FF30A100A10B0A28A00B082808008312BA
:100020000313333036202308870005103A202208B6
:1000300087003A20323036202308870005103A2006
:10004000220887003A202830362023088700051030
:100050003A20220887003A200F30362023088700F4
:1000600005103A20220887003A200800A300A200C9
:10007000A30E08008514062085100620062008001F
:10008000013036202308870005103A202208870017
:100090003A20803036202308870005103A202208B5
:1000A00087003A20413036202308870005143A2083
:1000B000220887003A207430362023088700051470
:1000C0003A20220887003A2074303620230887001F
:1000D00005143A20220887003A206530362023088C
:1000E000870005143A20220887003A206E30362017
:1000F0002308870005143A20220887003A2064303C
:1001000036202308870005143A20220887003A2069
:10011000613036202308870005143A202208870022
:100120003A206E3036202308870005143A20220832
:1001300087003A20743036202308870005143A20BF
:10014000220887003A202030362023088700051433
:100150003A20220887003A204D30362023088700B5
:1001600005143A20220887003A206F3036202308F1
:10017000870005143A20220887003A206430362090
:100180002308870005143A20220887003A2075309A
:1001900036202308870005143A20220887003A20D9
:1001A0006C3036202308870005143A202208870087
:1001B0003A20653036202308870005143A202208AB
:1001C00087003A20C03036202308870005103A20E7
:1001D000220887003A2006204D3036202308870069
:1001E00005143A20220887003A2069303620230877
:1001F000870005143A20220887003A206330362011
:100200002308870005143A20220887003A2072301C
:1002100036202308870005143A20220887003A2058
:100220006F3036202308870005143A202208870003
:100230003A20633036202308870005143A2022082C
:1002400087003A206F3036202308870005143A20B3
:10025000220887003A206E303620230887000514D4
:100260003A20220887003A2074303620230887007D
:1002700005143A20220887003A20723036202308DD
:10028000870005143A20220887003A206F30362074
:100290002308870005143A20220887003A206C3092
:1002A00036202308870005143A20220887003A20C8
:1002B0006C3036202308870005143A202208870076
:1002C0003A20653036202308870005143A2022089A
:1002D00087003A20723036202308870005143A2020
:1002E000220887003A20733036202308870005143F
:1002F0003A20220887003A20213036202308870040
:1003000005143A20220887003A2006200800013010
:1003100036202308870005103A20220887003A205B
:10032000803036202308870005103A2022088700F5
:100330003A20423036202308870005143A2022084C
:1003400087003A20753036202308870005143A20AC
:10035000220887003A2074303620230887000514CD
:100360003A20220887003A2074303620230887007C
:1003700005143A20220887003A206F3036202308DF
:10038000870005143A20220887003A206E30362074
:100390002308870005143A20220887003A202030DD
:1003A00036202308870005143A20220887003A20C7
:1003B000313036202308870005143A2022088700B0
:1003C0003A20203036202308870005143A202208DE
:1003D00087003A20773036202308870005143A201A
:1003E000220887003A206130362023088700051450
:1003F0003A20220887003A207330362023088700ED
:1004000005143A20220887003A20C03036202308FD
:10041000870005103A20220887003A205030362005
:100420002308870005143A20220887003A207230FA
:1004300036202308870005143A20220887003A2036
:10044000653036202308870005143A2022088700EB
:100450003A20733036202308870005143A202208FA
:1004600087003A20733036202308870005143A208D
:10047000220887003A2065303620230887000514BB
:100480003A20220887003A2064303620230887006B
:1004900005143A20220887003A202E3036202308FF
:1004A000870005143A20220887003A202E30362093
:1004B0002308870005143A20220887003A202E30AE
:1004C00036202308870005143A20220887003A20A6
:1004D00006200800013036202308870005103A2046
:1004E000220887003A208030362023088700051034
:1004F0003A20220887003A2042303620230887001D
:1005000005143A20220887003A2075303620230847
:10051000870005143A20220887003A2074303620DC
:100520002308870005143A20220887003A207430F7
:1005300036202308870005143A20220887003A2035
:100540006F3036202308870005143A2022088700E0
:100550003A206E3036202308870005143A202208FE
:1005600087003A20203036202308870005143A20DF
:10057000220887003A2032303620230887000514ED
:100580003A20220887003A202030362023088700AE
:1005900005143A20220887003A20773036202308B5
:1005A000870005143A20220887003A20613036205F
:1005B0002308870005143A20220887003A20733068
:1005C00036202308870005143A20220887003A20A5
:1005D000C03036202308870005103A202208870003
:1005E0003A20503036202308870005143A2022088C
:1005F00087003A20723036202308870005143A20FD
:10060000220887003A206530362023088700051429
:100610003A20220887003A207330362023088700CA
:1006200005143A20220887003A2073303620230828
:10063000870005143A20220887003A2065303620CA
:100640002308870005143A20220887003A206430E6
:1006500036202308870005143A20220887003A2014
:100660002E3036202308870005143A202208870000
:100670003A202E3036202308870005143A2022081D
:1006800087003A202E3036202308870005143A20B0
:10069000220887003A2006200800051E532B851EDD
:1006A000682B0B10080080303620230887000510C7
:1006B0003A20220887003A2001303620230887009C
:1006C00005103A20220887003A203B307F23512B27
:1006D0006A22512B97187C238C1E6A2B1408362013
:1006E0002308870005143A20220887003A200800D2
:1006F0008C1C782B95000800171217160800840030
:10070000000836202308870005143A2022088700B5
:100710003A2000080319080078230620840A802B59
:100720006A2308002430840041308000840A543059
:100730008000840A2B308000840A52308000840AB2
:1007400053308000840A54308000840A0D308000C9
:10075000840A0A308000840A003080002D30840032
:1007600041308000840A54308000840A2B3080009D
:10077000840A43308000840A49308000840A503063
:100780008000840A4D308000840A55308000840A3D
:1007900058308000840A3D308000840A3130800067
:1007A000840A0D308000840A0A308000840A0030F8
:1007B00080003B30840054308000840A2B3080005D
:1007C000840A43308000840A57308000840A4A300B
:1007D0008000840A41308000840A50308000840AFE
:1007E0003D308000840A22308000840A4930800035
:1007F000840A43308000840A22308000840A2C302E
:100800008000840A22308000840A69308000840AD3
:1008100063308000840A6F308000840A6D3080006D
:10082000840A70308000840A75308000840A743035
:100830008000840A61308000840A63308000840A6A
:1008400061308000840A6F308000840A7530800037
:10085000840A66308000840A61308000840A6C302B
:100860008000840A22308000840A0D308000840ACF
:100870000A308000840A00308000080083120313CD
:10088000073099008316031391013830850030300A
:10089000870081133030950083120313870185018F
:1008A0000F208B1783160313303096008B150B1017
:1008B00070308F00831203130C3093008C12971743
:1008C00017161612961692238030362023088700BA
:1008D00005103A20220887003A206E2C062090232B
:0208E0006E2C7C
:02400E00D43F9D
:00000001FF
