:020000040000FA
:02000000402E90
:040002000034003492
:080008001524090001300B244E
:100010002308870005100F24220887000F24803052
:100020000B242308870005100F24220887000F24C3
:1000300041300B242308870005140F242208870071
:100040000F2474300B242308870005140F24220882
:1000500087000F2474300B242308870005140F2415
:10006000220887000F2465300B242308870005141D
:100070000F24220887000F246E300B2423088700EA
:1000800005140F24220887000F2464300B24230852
:10009000870005140F24220887000F2461300B24E9
:1000A0002308870005140F24220887000F246E30D0
:1000B0000B242308870005140F24220887000F242F
:1000C00074300B242308870005140F2422088700AE
:1000D0000F2420300B242308870005140F24220846
:1000E00087000F244D300B242308870005140F24AC
:1000F000220887000F246F300B2423088700051483
:100100000F24220887000F2464300B242308870063
:1001100005140F24220887000F2475300B242308B0
:10012000870005140F24220887000F246C300B244D
:100130002308870005140F24220887000F24653048
:100140000B242308870005140F24220887000F249E
:10015000C0300B242308870005100F2422088700D5
:100160000F24DB234D300B242308870005140F24B4
:10017000220887000F2469300B2423088700051408
:100180000F24220887000F2463300B2423088700E4
:1001900005140F24220887000F2472300B24230833
:1001A000870005140F24220887000F246F300B24CA
:1001B0002308870005140F24220887000F246330CA
:1001C0000B242308870005140F24220887000F241E
:1001D0006F300B242308870005140F2422088700A2
:1001E0000F246E300B242308870005140F242208E7
:1001F00087000F2474300B242308870005140F2474
:10020000220887000F2472300B242308870005146E
:100210000F24220887000F246F300B242308870047
:1002200005140F24220887000F246C300B242308A8
:10023000870005140F24220887000F246C300B243C
:100240002308870005140F24220887000F24653037
:100250000B242308870005140F24220887000F248D
:1002600072300B242308870005140F24220887000E
:100270000F2473300B242308870005140F24220851
:1002800087000F2421300B242308870005140F2436
:10029000220887000F24080001300B242308870060
:1002A00005100F24220887000F2480300B24230818
:1002B000870005100F24220887000F2453300B24D9
:1002C0002308870005140F24220887000F245430C8
:1002D0000B242308870005140F24220887000F240D
:1002E00041300B242308870005140F2422088700BF
:1002F0000F2420300B242308870005140F24220824
:1003000087000F244F300B242308870005140F2487
:10031000220887000F244B300B2423088700051484
:100320000F24220887000F243F300B242308870066
:1003300005140F24220887000F24080001300B2425
:100340002308870005100F24220887000F2480301F
:100350000B242308870005100F24220887000F2490
:1003600057300B242308870005140F242208870028
:100370000F2449300B242308870005140F2422087A
:1003800087000F2446300B242308870005140F2410
:10039000220887000F2449300B2423088700051406
:1003A0000F24220887000F2420300B242308870005
:1003B00005140F24220887000F244F300B24230834
:1003C000870005140F24220887000F244B300B24CC
:1003D0002308870005140F24220887000F243F30CC
:1003E0000B242308870005140F24220887000F24FC
:1003F000080001300B242308870005100F24220871
:1004000087000F2480300B242308870005100F2459
:10041000220887000F2443300B242308870005148B
:100420000F24220887000F2450300B242308870054
:1004300005140F24220887000F244D300B242308B5
:10044000870005140F24220887000F2455300B2441
:100450002308870005140F24220887000F24583032
:100460000B242308870005140F24220887000F247B
:1004700020300B242308870005140F24220887004E
:100480000F244F300B242308870005140F24220863
:1004900087000F244B300B242308870005140F24FA
:1004A000220887000F243F300B24230887000514FF
:1004B0000F24220887000F24080001300B24230892
:1004C000870005100F24220887000F2480300B249A
:1004D0002308870005100F24220887000F244330CB
:1004E0000B242308870005140F24220887000F24FB
:1004F0006F300B242308870005140F24220887007F
:100500000F246E300B242308870005140F242208C3
:1005100087000F246E300B242308870005140F2456
:10052000220887000F2420300B242308870005149D
:100530000F24220887000F2464300B24230887002F
:1005400005140F24220887000F246F300B24230882
:10055000870005140F24220887000F246E300B2417
:100560002308870005140F24220887000F24653014
:100570000B242308870005140F24220887000F246A
:1005800021300B242308870005140F24220887003C
:100590000F24080001300B242308870005100F24C6
:1005A000220887000F2480300B24230887000510C1
:1005B0000F24220887000F2454300B2423088700BF
:1005C00005140F24220887000F2443300B2423082E
:1005D000870005140F24220887000F2450300B24B5
:1005E0002308870005140F24220887000F24080021
:1005F0002E300B242308870005140F2422088700BF
:100600000F24080001300B242308870005100F2455
:10061000220887000F2480300B2423088700051050
:100620000F24220887000F2447300B24230887005B
:1006300005140F24220887000F2475300B2423088B
:10064000870005140F24220887000F2469300B242B
:100650002308870005140F24220887000F24633025
:100660000B242308870005140F24220887000F2479
:1006700068300B242308870005140F242208870004
:100680000F2465300B242308870005140F2422084B
:1006900087000F243A300B242308870005140F2409
:1006A000220887000F2420300B242308870005141C
:1006B0000F24220887000F2428080B242308870012
:1006C00005140F24220887000F24C0300B242308B0
:1006D000870005100F24220887000F2454300B24B4
:1006E0002308870005140F24220887000F2469308F
:1006F0000B242308870005140F24220887000F24E9
:1007000063300B242308870005140F242208870078
:100710000F246B300B242308870005140F242208B4
:1007200087000F2465300B242308870005140F244D
:10073000220887000F2474300B2423088700051437
:100740000F24220887000F243A300B242308870047
:1007500005140F24220887000F2420300B242308BF
:10076000870005140F24220887000F2424080B2477
:100770002308870005140F24220887000F24270868
:100780000B242308870005140F24220887000F2458
:1007900026080B242308870005140F24220887004D
:1007A0000F2425080B242308870005140F24220892
:1007B00087000F2408000630A000FF30A100A10B25
:1007C000DF2BA00BDD2B08008312031333300B2427
:1007D0002308870005100F24220887000F243230D9
:1007E0000B242308870005100F24220887000F24FC
:1007F00028300B242308870005100F2422088700C7
:100800000F240F300B242308870005100F24220823
:1008100087000F240800A300A200A30E080085147F
:10082000DB238510DB23DB230800051E1B2C851E24
:10083000312C0B10080080300B2423088700051092
:100840000F24220887000F2401300B24230887007F
:1008500005100F24220887000F24B124402502230D
:10086000192C25085A3C0319192C40250223192C50
:10087000971853241408C0300B2423088700051050
:100880000F24220887000F2414080B242308870054
:1008900005140F24220887000F24140808008C1C5C
:1008A0004F2C9500080017121716080038240B2447
:1008B0002308870005140F24220887000F2408004E
:1008C00038244F3C031D602C38244B3C031D602C06
:1008D000080038242B3C031D692C3824493C031D97
:1008E000692C3824503C031D692C3824443C031DDA
:1008F000692C38242C3C031D692C3824303C031D02
:10090000692C38242C3C031D692C3824353C031DEC
:10091000692C38243A3C031D692C38243824A4005F
:100920003824A7003824A6003824A5000223080094
:100930003824473C031D982C38244F3C031D982C29
:100940003824543C031D982C3824203C031D982C3B
:100950003824493C031D982C3824503C031D982C06
:100960000800D62543304F2449304F2450304F24BF
:1009700053304F2454304F2441304F2452304F24B1
:1009800054304F243D304F2430304F242C304F24EE
:1009900022304F2454304F2443304F2450304F24C2
:1009A00022304F242C304F2422304F2431304F241A
:1009B00039304F2432304F242E304F2431304F24E1
:1009C00036304F2438304F242E304F2430304F24CF
:1009D0002E304F2431304F2430304F2431304F24CB
:1009E00022304F242C304F2431304F2430304F24CC
:1009F00030304F2430304F240D304F240A304F24F4
:100A0000CA226024F822D62543304F2449304F248F
:100A100050304F2453304F2445304F244E304F2414
:100A200044304F243D304F2430304F242C304F245D
:100A300031304F240D304F240A304F246024F822E7
:100A400028084F240D304F240A306024F8226924EE
:100A5000D62543304F2449304F2450304F24433063
:100A60004F244C304F244F304F2453304F244530C7
:100A70004F240D304F240A304F246024F822080000
:100A8000D62543304F2449304F2450304F24533023
:100A90004F2454304F2441304F2452304F2454308F
:100AA0004F243D304F2430304F242C304F242230FF
:100AB0004F2454304F2443304F2450304F242230A1
:100AC0004F242C304F2422304F2431304F243930E2
:100AD0004F2432304F242E304F2431304F243630C3
:100AE0004F2438304F242E304F2430304F242E30B6
:100AF0004F2431304F2430304F2432304F242230B5
:100B00004F242C304F2431304F2430304F2430309C
:100B10004F2430304F240D304F240A304F24CA2246
:100B20006024F822D62543304F2449304F245030DA
:100B30004F2453304F2445304F244E304F244430FF
:100B40004F243D304F2430304F242C304F2435304B
:100B50004F240D304F240A304F246024F8222808F7
:100B60004F2424084F2425084F2426084F24270803
:100B70004F240D304F240A306024F822D62543300C
:100B80004F2449304F2450304F2443304F244C30B1
:100B90004F244F304F2453304F2445304F240D30D5
:100BA0004F240A304F246024F822080041304F249B
:100BB00054304F242B304F240800D62552304F2478
:100BC00053304F2454304F2408004C21D625433055
:100BD0004F2457304F244D304F244F304F24443052
:100BE0004F2445304F243D304F2431304F24602472
:100BF0009E21D62543304F2457304F244A304F246E
:100C000041304F2450304F245F304F2443304F2425
:100C100055304F2452304F243D304F2422304F2442
:100C200064304F246C304F2469304F246E304F2491
:100C30006B304F2422304F242C304F2422304F244D
:100C400022304F240D304F240A304F246024F921E4
:100C5000D62543304F2449304F2450304F244D3057
:100C60004F2455304F2458304F243D304F243130DD
:100C70004F240D304F240A304F2460245D22080099
:100C80008312031307309900831603139101383040
:100C900085003030870081133030950083120313B4
:100CA00087018501E4238B178316031330309600E8
:100CB0008B150B1070308F00831203130C309300D0
:100CC0008C12971717161612961606205A30A50082
:100CD0003530A800DB23DB23DB23DB23E525702E67
:040CE000DB23702E74
:02400E00D43F9D
:00000001FF
