:020000040000FA
:02000000102EC0
:040002000034003492
:080008001524090001300B244E
:100010002308870005100F24220887000F24803052
:100020000B242308870005100F24220887000F24C3
:1000300041300B242308870005140F242208870071
:100040000F2474300B242308870005140F24220882
:1000500087000F2474300B242308870005140F2415
:10006000220887000F2465300B242308870005141D
:100070000F24220887000F246E300B2423088700EA
:1000800005140F24220887000F2464300B24230852
:10009000870005140F24220887000F2461300B24E9
:1000A0002308870005140F24220887000F246E30D0
:1000B0000B242308870005140F24220887000F242F
:1000C00074300B242308870005140F2422088700AE
:1000D0000F2420300B242308870005140F24220846
:1000E00087000F244D300B242308870005140F24AC
:1000F000220887000F246F300B2423088700051483
:100100000F24220887000F2464300B242308870063
:1001100005140F24220887000F2475300B242308B0
:10012000870005140F24220887000F246C300B244D
:100130002308870005140F24220887000F24653048
:100140000B242308870005140F24220887000F249E
:10015000C0300B242308870005100F2422088700D5
:100160000F24DB234D300B242308870005140F24B4
:10017000220887000F2469300B2423088700051408
:100180000F24220887000F2463300B2423088700E4
:1001900005140F24220887000F2472300B24230833
:1001A000870005140F24220887000F246F300B24CA
:1001B0002308870005140F24220887000F246330CA
:1001C0000B242308870005140F24220887000F241E
:1001D0006F300B242308870005140F2422088700A2
:1001E0000F246E300B242308870005140F242208E7
:1001F00087000F2474300B242308870005140F2474
:10020000220887000F2472300B242308870005146E
:100210000F24220887000F246F300B242308870047
:1002200005140F24220887000F246C300B242308A8
:10023000870005140F24220887000F246C300B243C
:100240002308870005140F24220887000F24653037
:100250000B242308870005140F24220887000F248D
:1002600072300B242308870005140F24220887000E
:100270000F2473300B242308870005140F24220851
:1002800087000F2421300B242308870005140F2436
:10029000220887000F24080001300B242308870060
:1002A00005100F24220887000F2480300B24230818
:1002B000870005100F24220887000F2453300B24D9
:1002C0002308870005140F24220887000F245430C8
:1002D0000B242308870005140F24220887000F240D
:1002E00041300B242308870005140F2422088700BF
:1002F0000F2420300B242308870005140F24220824
:1003000087000F244F300B242308870005140F2487
:10031000220887000F244B300B2423088700051484
:100320000F24220887000F243F300B242308870066
:1003300005140F24220887000F24080001300B2425
:100340002308870005100F24220887000F2480301F
:100350000B242308870005100F24220887000F2490
:1003600057300B242308870005140F242208870028
:100370000F2449300B242308870005140F2422087A
:1003800087000F2446300B242308870005140F2410
:10039000220887000F2449300B2423088700051406
:1003A0000F24220887000F2420300B242308870005
:1003B00005140F24220887000F244F300B24230834
:1003C000870005140F24220887000F244B300B24CC
:1003D0002308870005140F24220887000F243F30CC
:1003E0000B242308870005140F24220887000F24FC
:1003F000080001300B242308870005100F24220871
:1004000087000F2480300B242308870005100F2459
:10041000220887000F2443300B242308870005148B
:100420000F24220887000F2450300B242308870054
:1004300005140F24220887000F244D300B242308B5
:10044000870005140F24220887000F2455300B2441
:100450002308870005140F24220887000F24583032
:100460000B242308870005140F24220887000F247B
:1004700020300B242308870005140F24220887004E
:100480000F244F300B242308870005140F24220863
:1004900087000F244B300B242308870005140F24FA
:1004A000220887000F243F300B24230887000514FF
:1004B0000F24220887000F24080001300B24230892
:1004C000870005100F24220887000F2480300B249A
:1004D0002308870005100F24220887000F244330CB
:1004E0000B242308870005140F24220887000F24FB
:1004F0006F300B242308870005140F24220887007F
:100500000F246E300B242308870005140F242208C3
:1005100087000F246E300B242308870005140F2456
:10052000220887000F2420300B242308870005149D
:100530000F24220887000F2464300B24230887002F
:1005400005140F24220887000F246F300B24230882
:10055000870005140F24220887000F246E300B2417
:100560002308870005140F24220887000F24653014
:100570000B242308870005140F24220887000F246A
:1005800021300B242308870005140F24220887003C
:100590000F24080001300B242308870005100F24C6
:1005A000220887000F2480300B24230887000510C1
:1005B0000F24220887000F2454300B2423088700BF
:1005C00005140F24220887000F2443300B2423082E
:1005D000870005140F24220887000F2450300B24B5
:1005E0002308870005140F24220887000F24080021
:1005F0002E300B242308870005140F2422088700BF
:100600000F24080001300B242308870005100F2455
:10061000220887000F2480300B2423088700051050
:100620000F24220887000F2447300B24230887005B
:1006300005140F24220887000F2475300B2423088B
:10064000870005140F24220887000F2469300B242B
:100650002308870005140F24220887000F24633025
:100660000B242308870005140F24220887000F2479
:1006700068300B242308870005140F242208870004
:100680000F2465300B242308870005140F2422084B
:1006900087000F243A300B242308870005140F2409
:1006A000220887000F2420300B242308870005141C
:1006B0000F24220887000F2428080B242308870012
:1006C00005140F24220887000F24C0300B242308B0
:1006D000870005100F24220887000F2454300B24B4
:1006E0002308870005140F24220887000F2469308F
:1006F0000B242308870005140F24220887000F24E9
:1007000063300B242308870005140F242208870078
:100710000F246B300B242308870005140F242208B4
:1007200087000F2465300B242308870005140F244D
:10073000220887000F2474300B2423088700051437
:100740000F24220887000F243A300B242308870047
:1007500005140F24220887000F2420300B242308BF
:10076000870005140F24220887000F2424080B2477
:100770002308870005140F24220887000F24270868
:100780000B242308870005140F24220887000F2458
:1007900026080B242308870005140F24220887004D
:1007A0000F2425080B242308870005140F24220892
:1007B00087000F2408000630A000FF30A100A10B25
:1007C000DF2BA00BDD2B08008312031333300B2427
:1007D0002308870005100F24220887000F243230D9
:1007E0000B242308870005100F24220887000F24FC
:1007F00028300B242308870005100F2422088700C7
:100800000F240F300B242308870005100F24220823
:1008100087000F240800A300A200A30E080085147F
:10082000DB238510DB23DB230800051E1B2C851E24
:10083000312C0B10080080300B2423088700051092
:100840000F24220887000F2401300B24230887007F
:1008500005100F24220887000F2485241425022365
:10086000192C25085A3C0319192C14250223192C7C
:1008700097184024140808008C1C3C2C9500080094
:1008800017121716080038240B24230887000514B4
:100890000F24220887000F24080038244F3C031D32
:1008A0004D2C38244B3C031D4D2C080038242B3C88
:1008B000031D562C3824493C031D562C3824503C2B
:1008C000031D562C3824443C031D562C38242C3C44
:1008D000031D562C3824303C031D562C38242C3C48
:1008E000031D562C3824353C031D562C38243A3C25
:1008F000031D562C38243824A4003824A70038249B
:10090000A6003824A50002230800AA2543303C2471
:1009100049303C2450303C2453303C2454303C2457
:1009200041303C2452303C2454303C243D303C2463
:1009300030303C242C303C2422303C2454303C24A5
:1009400043303C2450303C2422303C242C303C2486
:1009500022303C2431303C2439303C2432303C2499
:100960002E303C2431303C2436303C2438303C247A
:100970002E303C2430303C242E303C2431303C247A
:1009800030303C2431303C2422303C242C303C2478
:1009900031303C2430303C2430303C2430303C2456
:1009A0000D303C240A303C24CA224D24F822AA25CA
:1009B00043303C2449303C2450303C2453303C24C8
:1009C00045303C244E303C2444303C243D303C24D3
:1009D00030303C242C303C2431303C240D303C243D
:1009E0000A303C244D24F82228083C240D303C24B5
:1009F0000A304D24F8225624AA2543303C2449309D
:100A00003C2450303C2443303C244C303C244F3078
:100A10003C2453303C2445303C240D303C240A30E7
:100A20003C244D24F8220800AA2543303C244930B8
:100A30003C2450303C2453303C2454303C2441303E
:100A40003C2452303C2454303C243D303C24303053
:100A50003C242C303C2422303C2454303C24433071
:100A60003C2450303C2422303C242C303C24223086
:100A70003C2431303C2439303C2432303C242E306C
:100A80003C2431303C2436303C2438303C242E3059
:100A90003C2430303C242E303C2431303C24303057
:100AA0003C2432303C2422303C242C303C24313055
:100AB0003C2430303C2430303C2430303C240D3059
:100AC0003C240A303C24CA224D24F822AA25433073
:100AD0003C2449303C2450303C2453303C244530A5
:100AE0003C244E303C2444303C243D303C243030C7
:100AF0003C242C303C2435303C240D303C240A303E
:100B00003C244D24F82228083C2424083C242508B1
:100B10003C2426083C2427083C240D303C240A3081
:100B20004D24F822AA2543303C2449303C2450303F
:100B30003C2443303C244C303C244F303C24533044
:100B40003C2445303C240D303C240A303C244D24C8
:100B5000F822080041303C2454303C242B303C2403
:100B60000800AA2543303C2457303C244D303C2417
:100B70004F303C2444303C2445303C243D303C2420
:100B800031303C240D303C240A303C244C214D248F
:100B9000AA2543303C2457303C244A303C24413081
:100BA0003C2450303C245F303C2443303C245530BE
:100BB0003C2452303C243D303C2422303C246430E0
:100BC0003C246C303C2469303C246E303C246B3037
:100BD0003C2422303C242C303C2422303C24223043
:100BE0003C240D303C240A303C249E214D24AA256F
:100BF00043303C2449303C2450303C244D303C248C
:100C000055303C2458303C243D303C2431303C2489
:100C10000D303C240A303C24F9214D245D2208008B
:100C200083120313073099008316031391013830A0
:100C30008500303087008113303095008312031314
:100C400087018501E4238B17831603133030960048
:100C50008B150B1070308F00831203130C30930030
:100C60008C12971717161612961606205A30A500E2
:100C70003530A800DB23DB23DB23DB23B125402E2B
:040C8000DB23402E04
:02400E00D43F9D
:00000001FF
